{
  "contractName": "ScoreStore",
  "abi": [
    {
      "constant": false,
      "inputs": [
        {
          "name": "name",
          "type": "string"
        }
      ],
      "name": "GetScore",
      "outputs": [
        {
          "name": "",
          "type": "int256"
        }
      ],
      "payable": false,
      "stateMutability": "nonpayable",
      "type": "function"
    },
    {
      "constant": false,
      "inputs": [
        {
          "name": "name",
          "type": "string"
        },
        {
          "name": "startingScore",
          "type": "int256"
        }
      ],
      "name": "AddPersonScore",
      "outputs": [],
      "payable": false,
      "stateMutability": "nonpayable",
      "type": "function"
    }
  ],
  "bytecode": "0x6060604052341561000f57600080fd5b6102808061001e6000396000f30060606040526004361061004b5763ffffffff7c0100000000000000000000000000000000000000000000000000000000600035041663308d19648114610050578063fdb402b8146100b3575b600080fd5b341561005b57600080fd5b6100a160046024813581810190830135806020601f8201819004810201604051908101604052818152929190602084018383808284375094965061010895505050505050565b60405190815260200160405180910390f35b34156100be57600080fd5b61010660046024813581810190830135806020601f82018190048102016040519081016040528181529291906020840183838082843750949650509335935061017692505050565b005b600080826040518082805190602001908083835b6020831061013b5780518252601f19909201916020918201910161011c565b6001836020036101000a0380198251168184511680821785525050505050509050019150509081526020016040518091039020549050919050565b600080836040518082805190602001908083835b602083106101a95780518252601f19909201916020918201910161018a565b6001836020036101000a03801982511681845116808217855250505050505090500191505090815260200160405180910390205413156101e857600080fd5b806000836040518082805190602001908083835b6020831061021b5780518252601f1990920191602091820191016101fc565b6001836020036101000a0380198251168184511680821785525050505050509050019150509081526020016040519081900390205550505600a165627a7a72305820fe355a974f8ff4ffaab817641689dda89ab4c5024a8ee7175cd2d68338b3dfe30029",
  "source": "pragma solidity ^0.4.4;\ncontract ScoreStore{\n    \n    mapping(string => int) PersonScores;\n    \n    function AddPersonScore(string name, int startingScore) {\n        if (PersonScores[name]>0) {\n            throw;\n        } else {\n            PersonScores[name] = startingScore;\n        }\n    }\n    \n    function GetScore(string name) returns (int) {\n        return PersonScores[name];\n    }\n}",
  "sourcePath": "/Users/ernestopedraza/Projects/eth/ScoreStore/contracts/ScoreStore.sol",
  "compiler": {
    "name": "solc",
    "version": "0.4.18+commit.9cf6e910.Emscripten.clang"
  },
  "schemaVersion": "1.0.1",
  "updatedAt": "2017-12-19T03:12:09.296Z"
}